{
  "_format": "hh-sol-artifact-1",
  "contractName": "LazyNFT",
  "sourceName": "contracts/LazyNFT.sol",
  "abi": [
    {
      "inputs": [
        {
          "internalType": "address payable",
          "name": "minter",
          "type": "address"
        }
      ],
      "stateMutability": "nonpayable",
      "type": "constructor"
    },
    {
      "anonymous": false,
      "inputs": [
        {
          "indexed": true,
          "internalType": "address",
          "name": "owner",
          "type": "address"
        },
        {
          "indexed": true,
          "internalType": "address",
          "name": "approved",
          "type": "address"
        },
        {
          "indexed": true,
          "internalType": "uint256",
          "name": "tokenId",
          "type": "uint256"
        }
      ],
      "name": "Approval",
      "type": "event"
    },
    {
      "anonymous": false,
      "inputs": [
        {
          "indexed": true,
          "internalType": "address",
          "name": "owner",
          "type": "address"
        },
        {
          "indexed": true,
          "internalType": "address",
          "name": "operator",
          "type": "address"
        },
        {
          "indexed": false,
          "internalType": "bool",
          "name": "approved",
          "type": "bool"
        }
      ],
      "name": "ApprovalForAll",
      "type": "event"
    },
    {
      "anonymous": false,
      "inputs": [
        {
          "indexed": true,
          "internalType": "bytes32",
          "name": "role",
          "type": "bytes32"
        },
        {
          "indexed": true,
          "internalType": "bytes32",
          "name": "previousAdminRole",
          "type": "bytes32"
        },
        {
          "indexed": true,
          "internalType": "bytes32",
          "name": "newAdminRole",
          "type": "bytes32"
        }
      ],
      "name": "RoleAdminChanged",
      "type": "event"
    },
    {
      "anonymous": false,
      "inputs": [
        {
          "indexed": true,
          "internalType": "bytes32",
          "name": "role",
          "type": "bytes32"
        },
        {
          "indexed": true,
          "internalType": "address",
          "name": "account",
          "type": "address"
        },
        {
          "indexed": true,
          "internalType": "address",
          "name": "sender",
          "type": "address"
        }
      ],
      "name": "RoleGranted",
      "type": "event"
    },
    {
      "anonymous": false,
      "inputs": [
        {
          "indexed": true,
          "internalType": "bytes32",
          "name": "role",
          "type": "bytes32"
        },
        {
          "indexed": true,
          "internalType": "address",
          "name": "account",
          "type": "address"
        },
        {
          "indexed": true,
          "internalType": "address",
          "name": "sender",
          "type": "address"
        }
      ],
      "name": "RoleRevoked",
      "type": "event"
    },
    {
      "anonymous": false,
      "inputs": [
        {
          "indexed": true,
          "internalType": "address",
          "name": "from",
          "type": "address"
        },
        {
          "indexed": true,
          "internalType": "address",
          "name": "to",
          "type": "address"
        },
        {
          "indexed": true,
          "internalType": "uint256",
          "name": "tokenId",
          "type": "uint256"
        }
      ],
      "name": "Transfer",
      "type": "event"
    },
    {
      "inputs": [],
      "name": "DEFAULT_ADMIN_ROLE",
      "outputs": [
        {
          "internalType": "bytes32",
          "name": "",
          "type": "bytes32"
        }
      ],
      "stateMutability": "view",
      "type": "function"
    },
    {
      "inputs": [],
      "name": "MINTER_ROLE",
      "outputs": [
        {
          "internalType": "bytes32",
          "name": "",
          "type": "bytes32"
        }
      ],
      "stateMutability": "view",
      "type": "function"
    },
    {
      "inputs": [
        {
          "internalType": "address",
          "name": "to",
          "type": "address"
        },
        {
          "internalType": "uint256",
          "name": "tokenId",
          "type": "uint256"
        }
      ],
      "name": "approve",
      "outputs": [],
      "stateMutability": "nonpayable",
      "type": "function"
    },
    {
      "inputs": [],
      "name": "availableToWithdraw",
      "outputs": [
        {
          "internalType": "uint256",
          "name": "",
          "type": "uint256"
        }
      ],
      "stateMutability": "view",
      "type": "function"
    },
    {
      "inputs": [
        {
          "internalType": "address",
          "name": "owner",
          "type": "address"
        }
      ],
      "name": "balanceOf",
      "outputs": [
        {
          "internalType": "uint256",
          "name": "",
          "type": "uint256"
        }
      ],
      "stateMutability": "view",
      "type": "function"
    },
    {
      "inputs": [
        {
          "internalType": "uint256",
          "name": "tokenId",
          "type": "uint256"
        }
      ],
      "name": "getApproved",
      "outputs": [
        {
          "internalType": "address",
          "name": "",
          "type": "address"
        }
      ],
      "stateMutability": "view",
      "type": "function"
    },
    {
      "inputs": [],
      "name": "getChainID",
      "outputs": [
        {
          "internalType": "uint256",
          "name": "",
          "type": "uint256"
        }
      ],
      "stateMutability": "view",
      "type": "function"
    },
    {
      "inputs": [
        {
          "internalType": "bytes32",
          "name": "role",
          "type": "bytes32"
        }
      ],
      "name": "getRoleAdmin",
      "outputs": [
        {
          "internalType": "bytes32",
          "name": "",
          "type": "bytes32"
        }
      ],
      "stateMutability": "view",
      "type": "function"
    },
    {
      "inputs": [
        {
          "internalType": "bytes32",
          "name": "role",
          "type": "bytes32"
        },
        {
          "internalType": "address",
          "name": "account",
          "type": "address"
        }
      ],
      "name": "grantRole",
      "outputs": [],
      "stateMutability": "nonpayable",
      "type": "function"
    },
    {
      "inputs": [
        {
          "internalType": "bytes32",
          "name": "role",
          "type": "bytes32"
        },
        {
          "internalType": "address",
          "name": "account",
          "type": "address"
        }
      ],
      "name": "hasRole",
      "outputs": [
        {
          "internalType": "bool",
          "name": "",
          "type": "bool"
        }
      ],
      "stateMutability": "view",
      "type": "function"
    },
    {
      "inputs": [
        {
          "internalType": "address",
          "name": "owner",
          "type": "address"
        },
        {
          "internalType": "address",
          "name": "operator",
          "type": "address"
        }
      ],
      "name": "isApprovedForAll",
      "outputs": [
        {
          "internalType": "bool",
          "name": "",
          "type": "bool"
        }
      ],
      "stateMutability": "view",
      "type": "function"
    },
    {
      "inputs": [],
      "name": "name",
      "outputs": [
        {
          "internalType": "string",
          "name": "",
          "type": "string"
        }
      ],
      "stateMutability": "view",
      "type": "function"
    },
    {
      "inputs": [
        {
          "internalType": "uint256",
          "name": "tokenId",
          "type": "uint256"
        }
      ],
      "name": "ownerOf",
      "outputs": [
        {
          "internalType": "address",
          "name": "",
          "type": "address"
        }
      ],
      "stateMutability": "view",
      "type": "function"
    },
    {
      "inputs": [
        {
          "internalType": "address",
          "name": "redeemer",
          "type": "address"
        },
        {
          "components": [
            {
              "internalType": "uint256",
              "name": "tokenId",
              "type": "uint256"
            },
            {
              "internalType": "uint256",
              "name": "minPrice",
              "type": "uint256"
            },
            {
              "internalType": "string",
              "name": "uri",
              "type": "string"
            },
            {
              "internalType": "bytes",
              "name": "signature",
              "type": "bytes"
            }
          ],
          "internalType": "struct LazyNFT.NFTVoucher",
          "name": "voucher",
          "type": "tuple"
        }
      ],
      "name": "redeem",
      "outputs": [
        {
          "internalType": "uint256",
          "name": "",
          "type": "uint256"
        }
      ],
      "stateMutability": "payable",
      "type": "function"
    },
    {
      "inputs": [
        {
          "internalType": "bytes32",
          "name": "role",
          "type": "bytes32"
        },
        {
          "internalType": "address",
          "name": "account",
          "type": "address"
        }
      ],
      "name": "renounceRole",
      "outputs": [],
      "stateMutability": "nonpayable",
      "type": "function"
    },
    {
      "inputs": [
        {
          "internalType": "bytes32",
          "name": "role",
          "type": "bytes32"
        },
        {
          "internalType": "address",
          "name": "account",
          "type": "address"
        }
      ],
      "name": "revokeRole",
      "outputs": [],
      "stateMutability": "nonpayable",
      "type": "function"
    },
    {
      "inputs": [
        {
          "internalType": "address",
          "name": "from",
          "type": "address"
        },
        {
          "internalType": "address",
          "name": "to",
          "type": "address"
        },
        {
          "internalType": "uint256",
          "name": "tokenId",
          "type": "uint256"
        }
      ],
      "name": "safeTransferFrom",
      "outputs": [],
      "stateMutability": "nonpayable",
      "type": "function"
    },
    {
      "inputs": [
        {
          "internalType": "address",
          "name": "from",
          "type": "address"
        },
        {
          "internalType": "address",
          "name": "to",
          "type": "address"
        },
        {
          "internalType": "uint256",
          "name": "tokenId",
          "type": "uint256"
        },
        {
          "internalType": "bytes",
          "name": "_data",
          "type": "bytes"
        }
      ],
      "name": "safeTransferFrom",
      "outputs": [],
      "stateMutability": "nonpayable",
      "type": "function"
    },
    {
      "inputs": [
        {
          "internalType": "address",
          "name": "operator",
          "type": "address"
        },
        {
          "internalType": "bool",
          "name": "approved",
          "type": "bool"
        }
      ],
      "name": "setApprovalForAll",
      "outputs": [],
      "stateMutability": "nonpayable",
      "type": "function"
    },
    {
      "inputs": [
        {
          "internalType": "bytes4",
          "name": "interfaceId",
          "type": "bytes4"
        }
      ],
      "name": "supportsInterface",
      "outputs": [
        {
          "internalType": "bool",
          "name": "",
          "type": "bool"
        }
      ],
      "stateMutability": "view",
      "type": "function"
    },
    {
      "inputs": [],
      "name": "symbol",
      "outputs": [
        {
          "internalType": "string",
          "name": "",
          "type": "string"
        }
      ],
      "stateMutability": "view",
      "type": "function"
    },
    {
      "inputs": [
        {
          "internalType": "uint256",
          "name": "tokenId",
          "type": "uint256"
        }
      ],
      "name": "tokenURI",
      "outputs": [
        {
          "internalType": "string",
          "name": "",
          "type": "string"
        }
      ],
      "stateMutability": "view",
      "type": "function"
    },
    {
      "inputs": [
        {
          "internalType": "address",
          "name": "from",
          "type": "address"
        },
        {
          "internalType": "address",
          "name": "to",
          "type": "address"
        },
        {
          "internalType": "uint256",
          "name": "tokenId",
          "type": "uint256"
        }
      ],
      "name": "transferFrom",
      "outputs": [],
      "stateMutability": "nonpayable",
      "type": "function"
    },
    {
      "inputs": [],
      "name": "withdraw",
      "outputs": [],
      "stateMutability": "nonpayable",
      "type": "function"
    }
  ],
  "bytecode": "0x6101206040523480156200001257600080fd5b5060405162004c3338038062004c33833981810160405281019062000038919062000478565b6040518060400160405280600f81526020017f4c617a794e46542d566f756368657200000000000000000000000000000000008152506040518060400160405280600181526020017f31000000000000000000000000000000000000000000000000000000000000008152506040518060400160405280600781526020017f4c617a794e4654000000000000000000000000000000000000000000000000008152506040518060400160405280600381526020017f4c415a0000000000000000000000000000000000000000000000000000000000815250816000908051906020019062000128929190620003b1565b50806001908051906020019062000141929190620003b1565b50505060008280519060200120905060008280519060200120905060007f8b73c3c69bb8fe3d512ecc4cf759cc79239f7b179b0ffacaa9a75d522b39400f90508260c081815250508160e081815250504660a08181525050620001ac818484620001fa60201b60201c565b608081815250508061010081815250505050505050620001f37f9f2df0fed2c77648de5860a4cc508cd0818c85b8b8a1ab4ceeef8d981c8956a6826200023660201b60201c565b506200060f565b6000838383463060405160200162000217959493929190620004d7565b6040516020818303038152906040528051906020012090509392505050565b6200024882826200024c60201b60201c565b5050565b6200025e82826200033e60201b60201c565b6200033a5760016007600084815260200190815260200160002060000160008373ffffffffffffffffffffffffffffffffffffffff1673ffffffffffffffffffffffffffffffffffffffff16815260200190815260200160002060006101000a81548160ff021916908315150217905550620002df620003a960201b60201c565b73ffffffffffffffffffffffffffffffffffffffff168173ffffffffffffffffffffffffffffffffffffffff16837f2f8788117e7eff1d82e926ec794901d17c78024a50270940304540a733656f0d60405160405180910390a45b5050565b60006007600084815260200190815260200160002060000160008373ffffffffffffffffffffffffffffffffffffffff1673ffffffffffffffffffffffffffffffffffffffff16815260200190815260200160002060009054906101000a900460ff16905092915050565b600033905090565b828054620003bf9062000590565b90600052602060002090601f016020900481019282620003e357600085556200042f565b82601f10620003fe57805160ff19168380011785556200042f565b828001600101855582156200042f579182015b828111156200042e57825182559160200191906001019062000411565b5b5090506200043e919062000442565b5090565b5b808211156200045d57600081600090555060010162000443565b5090565b6000815190506200047281620005f5565b92915050565b6000602082840312156200048b57600080fd5b60006200049b8482850162000461565b91505092915050565b620004af8162000534565b82525050565b620004c0816200055c565b82525050565b620004d18162000586565b82525050565b600060a082019050620004ee6000830188620004b5565b620004fd6020830187620004b5565b6200050c6040830186620004b5565b6200051b6060830185620004c6565b6200052a6080830184620004a4565b9695505050505050565b6000620005418262000566565b9050919050565b6000620005558262000566565b9050919050565b6000819050919050565b600073ffffffffffffffffffffffffffffffffffffffff82169050919050565b6000819050919050565b60006002820490506001821680620005a957607f821691505b60208210811415620005c057620005bf620005c6565b5b50919050565b7f4e487b7100000000000000000000000000000000000000000000000000000000600052602260045260246000fd5b620006008162000548565b81146200060c57600080fd5b50565b60805160a05160c05160e051610100516145df6200065460003960006129210152600061296301526000612942015260006128ce015260006128f601526145df6000f3fe60806040526004361061014b5760003560e01c80636352211e116100b6578063b88d4fde1161006f578063b88d4fde146104a7578063c87b56dd146104d0578063d53913931461050d578063d547741f14610538578063e322ad2b14610561578063e985e9c51461058c5761014b565b80636352211e1461037157806370a08231146103ae57806391d14854146103eb57806395d89b4114610428578063a217fddf14610453578063a22cb4651461047e5761014b565b8063248a9ca311610108578063248a9ca3146102775780632f2ff15d146102b457806336568abe146102dd5780633ccfd60b1461030657806342842e0e1461031d578063564b81ef146103465761014b565b806301ffc9a71461015057806306fdde031461018d578063081812fc146101b857806308708a78146101f5578063095ea7b31461022557806323b872dd1461024e575b600080fd5b34801561015c57600080fd5b5061017760048036038101906101729190612dfe565b6105c9565b604051610184919061348c565b60405180910390f35b34801561019957600080fd5b506101a26105eb565b6040516101af919061359f565b60405180910390f35b3480156101c457600080fd5b506101df60048036038101906101da9190612e50565b61067d565b6040516101ec9190613425565b60405180910390f35b61020f600480360381019061020a9190612d09565b610702565b60405161021c91906138e1565b60405180910390f35b34801561023157600080fd5b5061024c60048036038101906102479190612d5d565b6108a1565b005b34801561025a57600080fd5b5061027560048036038101906102709190612c03565b6109b9565b005b34801561028357600080fd5b5061029e60048036038101906102999190612d99565b610a19565b6040516102ab91906134a7565b60405180910390f35b3480156102c057600080fd5b506102db60048036038101906102d69190612dc2565b610a39565b005b3480156102e957600080fd5b5061030460048036038101906102ff9190612dc2565b610a62565b005b34801561031257600080fd5b5061031b610ae5565b005b34801561032957600080fd5b50610344600480360381019061033f9190612c03565b610c27565b005b34801561035257600080fd5b5061035b610c47565b60405161036891906138e1565b60405180910390f35b34801561037d57600080fd5b5061039860048036038101906103939190612e50565b610c54565b6040516103a59190613425565b60405180910390f35b3480156103ba57600080fd5b506103d560048036038101906103d09190612b9e565b610d06565b6040516103e291906138e1565b60405180910390f35b3480156103f757600080fd5b50610412600480360381019061040d9190612dc2565b610dbe565b60405161041f919061348c565b60405180910390f35b34801561043457600080fd5b5061043d610e29565b60405161044a919061359f565b60405180910390f35b34801561045f57600080fd5b50610468610ebb565b60405161047591906134a7565b60405180910390f35b34801561048a57600080fd5b506104a560048036038101906104a09190612ccd565b610ec2565b005b3480156104b357600080fd5b506104ce60048036038101906104c99190612c52565b611043565b005b3480156104dc57600080fd5b506104f760048036038101906104f29190612e50565b6110a5565b604051610504919061359f565b60405180910390f35b34801561051957600080fd5b506105226111f7565b60405161052f91906134a7565b60405180910390f35b34801561054457600080fd5b5061055f600480360381019061055a9190612dc2565b61121b565b005b34801561056d57600080fd5b50610576611244565b60405161058391906138e1565b60405180910390f35b34801561059857600080fd5b506105b360048036038101906105ae9190612bc7565b61128b565b6040516105c0919061348c565b60405180910390f35b60006105d48261131f565b806105e457506105e382611401565b5b9050919050565b6060600080546105fa90613c5a565b80601f016020809104026020016040519081016040528092919081815260200182805461062690613c5a565b80156106735780601f1061064857610100808354040283529160200191610673565b820191906000526020600020905b81548152906001019060200180831161065657829003601f168201915b5050505050905090565b60006106888261147b565b6106c7576040517f08c379a00000000000000000000000000000000000000000000000000000000081526004016106be906137e1565b60405180910390fd5b6004600083815260200190815260200160002060009054906101000a900473ffffffffffffffffffffffffffffffffffffffff169050919050565b60008061070e836114e7565b905061073a7f9f2df0fed2c77648de5860a4cc508cd0818c85b8b8a1ab4ceeef8d981c8956a682610dbe565b610779576040517f08c379a000000000000000000000000000000000000000000000000000000000815260040161077090613881565b60405180910390fd5b82602001353410156107c0576040517f08c379a00000000000000000000000000000000000000000000000000000000081526004016107b790613781565b60405180910390fd5b6107ce818460000135611559565b61082e83600001358480604001906107e69190613953565b8080601f016020809104026020016040519081016040528093929190818152602001838380828437600081840152601f19601f82011690508083019250505050505050611727565b61083d8185856000013561179b565b34600860008373ffffffffffffffffffffffffffffffffffffffff1673ffffffffffffffffffffffffffffffffffffffff168152602001908152602001600020600082825461088c9190613a4e565b92505081905550826000013591505092915050565b60006108ac82610c54565b90508073ffffffffffffffffffffffffffffffffffffffff168373ffffffffffffffffffffffffffffffffffffffff16141561091d576040517f08c379a000000000000000000000000000000000000000000000000000000000815260040161091490613861565b60405180910390fd5b8073ffffffffffffffffffffffffffffffffffffffff1661093c6119f7565b73ffffffffffffffffffffffffffffffffffffffff16148061096b575061096a816109656119f7565b61128b565b5b6109aa576040517f08c379a00000000000000000000000000000000000000000000000000000000081526004016109a1906136e1565b60405180910390fd5b6109b483836119ff565b505050565b6109ca6109c46119f7565b82611ab8565b610a09576040517f08c379a0000000000000000000000000000000000000000000000000000000008152600401610a00906138a1565b60405180910390fd5b610a1483838361179b565b505050565b600060076000838152602001908152602001600020600101549050919050565b610a4282610a19565b610a5381610a4e6119f7565b611b96565b610a5d8383611c33565b505050565b610a6a6119f7565b73ffffffffffffffffffffffffffffffffffffffff168173ffffffffffffffffffffffffffffffffffffffff1614610ad7576040517f08c379a0000000000000000000000000000000000000000000000000000000008152600401610ace906138c1565b60405180910390fd5b610ae18282611d14565b5050565b610b0f7f9f2df0fed2c77648de5860a4cc508cd0818c85b8b8a1ab4ceeef8d981c8956a633610dbe565b610b4e576040517f08c379a0000000000000000000000000000000000000000000000000000000008152600401610b4590613841565b60405180910390fd5b60003390506000600860008373ffffffffffffffffffffffffffffffffffffffff1673ffffffffffffffffffffffffffffffffffffffff1681526020019081526020016000205490506000600860008473ffffffffffffffffffffffffffffffffffffffff1673ffffffffffffffffffffffffffffffffffffffff168152602001908152602001600020819055508173ffffffffffffffffffffffffffffffffffffffff166108fc829081150290604051600060405180830381858888f19350505050158015610c22573d6000803e3d6000fd5b505050565b610c4283838360405180602001604052806000815250611043565b505050565b6000804690508091505090565b6000806002600084815260200190815260200160002060009054906101000a900473ffffffffffffffffffffffffffffffffffffffff169050600073ffffffffffffffffffffffffffffffffffffffff168173ffffffffffffffffffffffffffffffffffffffff161415610cfd576040517f08c379a0000000000000000000000000000000000000000000000000000000008152600401610cf490613721565b60405180910390fd5b80915050919050565b60008073ffffffffffffffffffffffffffffffffffffffff168273ffffffffffffffffffffffffffffffffffffffff161415610d77576040517f08c379a0000000000000000000000000000000000000000000000000000000008152600401610d6e90613701565b60405180910390fd5b600360008373ffffffffffffffffffffffffffffffffffffffff1673ffffffffffffffffffffffffffffffffffffffff168152602001908152602001600020549050919050565b60006007600084815260200190815260200160002060000160008373ffffffffffffffffffffffffffffffffffffffff1673ffffffffffffffffffffffffffffffffffffffff16815260200190815260200160002060009054906101000a900460ff16905092915050565b606060018054610e3890613c5a565b80601f0160208091040260200160405190810160405280929190818152602001828054610e6490613c5a565b8015610eb15780601f10610e8657610100808354040283529160200191610eb1565b820191906000526020600020905b815481529060010190602001808311610e9457829003601f168201915b5050505050905090565b6000801b81565b610eca6119f7565b73ffffffffffffffffffffffffffffffffffffffff168273ffffffffffffffffffffffffffffffffffffffff161415610f38576040517f08c379a0000000000000000000000000000000000000000000000000000000008152600401610f2f90613681565b60405180910390fd5b8060056000610f456119f7565b73ffffffffffffffffffffffffffffffffffffffff1673ffffffffffffffffffffffffffffffffffffffff16815260200190815260200160002060008473ffffffffffffffffffffffffffffffffffffffff1673ffffffffffffffffffffffffffffffffffffffff16815260200190815260200160002060006101000a81548160ff0219169083151502179055508173ffffffffffffffffffffffffffffffffffffffff16610ff26119f7565b73ffffffffffffffffffffffffffffffffffffffff167f17307eab39ab6107e8899845ad3d59bd9653f200f220920489ca2b5937696c3183604051611037919061348c565b60405180910390a35050565b61105461104e6119f7565b83611ab8565b611093576040517f08c379a000000000000000000000000000000000000000000000000000000000815260040161108a906138a1565b60405180910390fd5b61109f84848484611df6565b50505050565b60606110b08261147b565b6110ef576040517f08c379a00000000000000000000000000000000000000000000000000000000081526004016110e6906137c1565b60405180910390fd5b600060066000848152602001908152602001600020805461110f90613c5a565b80601f016020809104026020016040519081016040528092919081815260200182805461113b90613c5a565b80156111885780601f1061115d57610100808354040283529160200191611188565b820191906000526020600020905b81548152906001019060200180831161116b57829003601f168201915b505050505090506000611199611e52565b90506000815114156111af5781925050506111f2565b6000825111156111e45780826040516020016111cc929190613390565b604051602081830303815290604052925050506111f2565b6111ed84611e69565b925050505b919050565b7f9f2df0fed2c77648de5860a4cc508cd0818c85b8b8a1ab4ceeef8d981c8956a681565b61122482610a19565b611235816112306119f7565b611b96565b61123f8383611d14565b505050565b6000600860003373ffffffffffffffffffffffffffffffffffffffff1673ffffffffffffffffffffffffffffffffffffffff16815260200190815260200160002054905090565b6000600560008473ffffffffffffffffffffffffffffffffffffffff1673ffffffffffffffffffffffffffffffffffffffff16815260200190815260200160002060008373ffffffffffffffffffffffffffffffffffffffff1673ffffffffffffffffffffffffffffffffffffffff16815260200190815260200160002060009054906101000a900460ff16905092915050565b60007f80ac58cd000000000000000000000000000000000000000000000000000000007bffffffffffffffffffffffffffffffffffffffffffffffffffffffff1916827bffffffffffffffffffffffffffffffffffffffffffffffffffffffff191614806113ea57507f5b5e139f000000000000000000000000000000000000000000000000000000007bffffffffffffffffffffffffffffffffffffffffffffffffffffffff1916827bffffffffffffffffffffffffffffffffffffffffffffffffffffffff1916145b806113fa57506113f982611f10565b5b9050919050565b60007f7965db0b000000000000000000000000000000000000000000000000000000007bffffffffffffffffffffffffffffffffffffffffffffffffffffffff1916827bffffffffffffffffffffffffffffffffffffffffffffffffffffffff1916148061147457506114738261131f565b5b9050919050565b60008073ffffffffffffffffffffffffffffffffffffffff166002600084815260200190815260200160002060009054906101000a900473ffffffffffffffffffffffffffffffffffffffff1673ffffffffffffffffffffffffffffffffffffffff1614159050919050565b6000806114f383611f7a565b90506115518184806060019061150991906138fc565b8080601f016020809104026020016040519081016040528093929190818152602001838380828437600081840152601f19601f82011690508083019250505050505050612005565b915050919050565b600073ffffffffffffffffffffffffffffffffffffffff168273ffffffffffffffffffffffffffffffffffffffff1614156115c9576040517f08c379a00000000000000000000000000000000000000000000000000000000081526004016115c0906137a1565b60405180910390fd5b6115d28161147b565b15611612576040517f08c379a000000000000000000000000000000000000000000000000000000000815260040161160990613641565b60405180910390fd5b61161e600083836120cf565b6001600360008473ffffffffffffffffffffffffffffffffffffffff1673ffffffffffffffffffffffffffffffffffffffff168152602001908152602001600020600082825461166e9190613a4e565b92505081905550816002600083815260200190815260200160002060006101000a81548173ffffffffffffffffffffffffffffffffffffffff021916908373ffffffffffffffffffffffffffffffffffffffff160217905550808273ffffffffffffffffffffffffffffffffffffffff16600073ffffffffffffffffffffffffffffffffffffffff167fddf252ad1be2c89b69c2b068fc378daa952ba7f163c4a11628f55a4df523b3ef60405160405180910390a45050565b6117308261147b565b61176f576040517f08c379a000000000000000000000000000000000000000000000000000000000815260040161176690613741565b60405180910390fd5b806006600084815260200190815260200160002090805190602001906117969291906129fa565b505050565b8273ffffffffffffffffffffffffffffffffffffffff166117bb82610c54565b73ffffffffffffffffffffffffffffffffffffffff1614611811576040517f08c379a000000000000000000000000000000000000000000000000000000000815260040161180890613801565b60405180910390fd5b600073ffffffffffffffffffffffffffffffffffffffff168273ffffffffffffffffffffffffffffffffffffffff161415611881576040517f08c379a000000000000000000000000000000000000000000000000000000000815260040161187890613661565b60405180910390fd5b61188c8383836120cf565b6118976000826119ff565b6001600360008573ffffffffffffffffffffffffffffffffffffffff1673ffffffffffffffffffffffffffffffffffffffff16815260200190815260200160002060008282546118e79190613b2f565b925050819055506001600360008473ffffffffffffffffffffffffffffffffffffffff1673ffffffffffffffffffffffffffffffffffffffff168152602001908152602001600020600082825461193e9190613a4e565b92505081905550816002600083815260200190815260200160002060006101000a81548173ffffffffffffffffffffffffffffffffffffffff021916908373ffffffffffffffffffffffffffffffffffffffff160217905550808273ffffffffffffffffffffffffffffffffffffffff168473ffffffffffffffffffffffffffffffffffffffff167fddf252ad1be2c89b69c2b068fc378daa952ba7f163c4a11628f55a4df523b3ef60405160405180910390a4505050565b600033905090565b816004600083815260200190815260200160002060006101000a81548173ffffffffffffffffffffffffffffffffffffffff021916908373ffffffffffffffffffffffffffffffffffffffff160217905550808273ffffffffffffffffffffffffffffffffffffffff16611a7283610c54565b73ffffffffffffffffffffffffffffffffffffffff167f8c5be1e5ebec7d5bd14f71427d1e84f3dd0314c0f7b2291e5b200ac8c7c3b92560405160405180910390a45050565b6000611ac38261147b565b611b02576040517f08c379a0000000000000000000000000000000000000000000000000000000008152600401611af9906136c1565b60405180910390fd5b6000611b0d83610c54565b90508073ffffffffffffffffffffffffffffffffffffffff168473ffffffffffffffffffffffffffffffffffffffff161480611b7c57508373ffffffffffffffffffffffffffffffffffffffff16611b648461067d565b73ffffffffffffffffffffffffffffffffffffffff16145b80611b8d5750611b8c818561128b565b5b91505092915050565b611ba08282610dbe565b611c2f57611bc58173ffffffffffffffffffffffffffffffffffffffff1660146120d4565b611bd38360001c60206120d4565b604051602001611be49291906133eb565b6040516020818303038152906040526040517f08c379a0000000000000000000000000000000000000000000000000000000008152600401611c26919061359f565b60405180910390fd5b5050565b611c3d8282610dbe565b611d105760016007600084815260200190815260200160002060000160008373ffffffffffffffffffffffffffffffffffffffff1673ffffffffffffffffffffffffffffffffffffffff16815260200190815260200160002060006101000a81548160ff021916908315150217905550611cb56119f7565b73ffffffffffffffffffffffffffffffffffffffff168173ffffffffffffffffffffffffffffffffffffffff16837f2f8788117e7eff1d82e926ec794901d17c78024a50270940304540a733656f0d60405160405180910390a45b5050565b611d1e8282610dbe565b15611df25760006007600084815260200190815260200160002060000160008373ffffffffffffffffffffffffffffffffffffffff1673ffffffffffffffffffffffffffffffffffffffff16815260200190815260200160002060006101000a81548160ff021916908315150217905550611d976119f7565b73ffffffffffffffffffffffffffffffffffffffff168173ffffffffffffffffffffffffffffffffffffffff16837ff6391f5c32d9c69d2a47ea670b442974b53935d1edc7fd64eb21e047a839171b60405160405180910390a45b5050565b611e0184848461179b565b611e0d848484846123ce565b611e4c576040517f08c379a0000000000000000000000000000000000000000000000000000000008152600401611e4390613621565b60405180910390fd5b50505050565b606060405180602001604052806000815250905090565b6060611e748261147b565b611eb3576040517f08c379a0000000000000000000000000000000000000000000000000000000008152600401611eaa90613821565b60405180910390fd5b6000611ebd611e52565b90506000815111611edd5760405180602001604052806000815250611f08565b80611ee784612565565b604051602001611ef8929190613390565b6040516020818303038152906040525b915050919050565b60007f01ffc9a7000000000000000000000000000000000000000000000000000000007bffffffffffffffffffffffffffffffffffffffffffffffffffffffff1916827bffffffffffffffffffffffffffffffffffffffffffffffffffffffff1916149050919050565b6000611ffe7f6316f9ddd4d59a364f3b95c26bab9d392c3380ace0fff15e91ed76f0d8bcd15a83600001358460200135858060400190611fba9190613953565b604051611fc8929190613377565b6040518091039020604051602001611fe39493929190613515565b60405160208183030381529060405280519060200120612712565b9050919050565b600080600080604185511415612032576020850151925060408501519150606085015160001a90506120b8565b60408551141561207c576040850151602086015193507f7fffffffffffffffffffffffffffffffffffffffffffffffffffffffffffffff81169250601b8160ff1c019150506120b7565b6040517f08c379a00000000000000000000000000000000000000000000000000000000081526004016120ae90613601565b60405180910390fd5b5b6120c48682858561272c565b935050505092915050565b505050565b6060600060028360026120e79190613ad5565b6120f19190613a4e565b67ffffffffffffffff811115612130577f4e487b7100000000000000000000000000000000000000000000000000000000600052604160045260246000fd5b6040519080825280601f01601f1916602001820160405280156121625781602001600182028036833780820191505090505b5090507f3000000000000000000000000000000000000000000000000000000000000000816000815181106121c0577f4e487b7100000000000000000000000000000000000000000000000000000000600052603260045260246000fd5b60200101907effffffffffffffffffffffffffffffffffffffffffffffffffffffffffffff1916908160001a9053507f78000000000000000000000000000000000000000000000000000000000000008160018151811061224a577f4e487b7100000000000000000000000000000000000000000000000000000000600052603260045260246000fd5b60200101907effffffffffffffffffffffffffffffffffffffffffffffffffffffffffffff1916908160001a9053506000600184600261228a9190613ad5565b6122949190613a4e565b90505b6001811115612380577f3031323334353637383961626364656600000000000000000000000000000000600f8616601081106122fc577f4e487b7100000000000000000000000000000000000000000000000000000000600052603260045260246000fd5b1a60f81b828281518110612339577f4e487b7100000000000000000000000000000000000000000000000000000000600052603260045260246000fd5b60200101907effffffffffffffffffffffffffffffffffffffffffffffffffffffffffffff1916908160001a905350600485901c94508061237990613c30565b9050612297565b50600084146123c4576040517f08c379a00000000000000000000000000000000000000000000000000000000081526004016123bb906135e1565b60405180910390fd5b8091505092915050565b60006123ef8473ffffffffffffffffffffffffffffffffffffffff166128b7565b15612558578373ffffffffffffffffffffffffffffffffffffffff1663150b7a026124186119f7565b8786866040518563ffffffff1660e01b815260040161243a9493929190613440565b602060405180830381600087803b15801561245457600080fd5b505af192505050801561248557506040513d601f19601f820116820180604052508101906124829190612e27565b60015b612508573d80600081146124b5576040519150601f19603f3d011682016040523d82523d6000602084013e6124ba565b606091505b50600081511415612500576040517f08c379a00000000000000000000000000000000000000000000000000000000081526004016124f790613621565b60405180910390fd5b805181602001fd5b63150b7a0260e01b7bffffffffffffffffffffffffffffffffffffffffffffffffffffffff1916817bffffffffffffffffffffffffffffffffffffffffffffffffffffffff19161491505061255d565b600190505b949350505050565b606060008214156125ad576040518060400160405280600181526020017f3000000000000000000000000000000000000000000000000000000000000000815250905061270d565b600082905060005b600082146125df5780806125c890613cbd565b915050600a826125d89190613aa4565b91506125b5565b60008167ffffffffffffffff811115612621577f4e487b7100000000000000000000000000000000000000000000000000000000600052604160045260246000fd5b6040519080825280601f01601f1916602001820160405280156126535781602001600182028036833780820191505090505b5090505b600085146127065760018261266c9190613b2f565b9150600a8561267b9190613d10565b60306126879190613a4e565b60f81b8183815181106126c3577f4e487b7100000000000000000000000000000000000000000000000000000000600052603260045260246000fd5b60200101907effffffffffffffffffffffffffffffffffffffffffffffffffffffffffffff1916908160001a905350600a856126ff9190613aa4565b9450612657565b8093505050505b919050565b600061272561271f6128ca565b8361298d565b9050919050565b60007f7fffffffffffffffffffffffffffffff5d576e7357a4501ddfe92f46681b20a08260001c1115612794576040517f08c379a000000000000000000000000000000000000000000000000000000000815260040161278b906136a1565b60405180910390fd5b601b8460ff1614806127a95750601c8460ff16145b6127e8576040517f08c379a00000000000000000000000000000000000000000000000000000000081526004016127df90613761565b60405180910390fd5b60006001868686866040516000815260200160405260405161280d949392919061355a565b6020604051602081039080840390855afa15801561282f573d6000803e3d6000fd5b505050602060405103519050600073ffffffffffffffffffffffffffffffffffffffff168173ffffffffffffffffffffffffffffffffffffffff1614156128ab576040517f08c379a00000000000000000000000000000000000000000000000000000000081526004016128a2906135c1565b60405180910390fd5b80915050949350505050565b600080823b905060008111915050919050565b60007f000000000000000000000000000000000000000000000000000000000000000046141561291c577f0000000000000000000000000000000000000000000000000000000000000000905061298a565b6129877f00000000000000000000000000000000000000000000000000000000000000007f00000000000000000000000000000000000000000000000000000000000000007f00000000000000000000000000000000000000000000000000000000000000006129c0565b90505b90565b600082826040516020016129a29291906133b4565b60405160208183030381529060405280519060200120905092915050565b600083838346306040516020016129db9594939291906134c2565b6040516020818303038152906040528051906020012090509392505050565b828054612a0690613c5a565b90600052602060002090601f016020900481019282612a285760008555612a6f565b82601f10612a4157805160ff1916838001178555612a6f565b82800160010185558215612a6f579182015b82811115612a6e578251825591602001919060010190612a53565b5b509050612a7c9190612a80565b5090565b5b80821115612a99576000816000905550600101612a81565b5090565b6000612ab0612aab846139cf565b6139aa565b905082815260208101848484011115612ac857600080fd5b612ad3848285613bee565b509392505050565b600081359050612aea81614536565b92915050565b600081359050612aff8161454d565b92915050565b600081359050612b1481614564565b92915050565b600081359050612b298161457b565b92915050565b600081519050612b3e8161457b565b92915050565b600082601f830112612b5557600080fd5b8135612b65848260208601612a9d565b91505092915050565b600060808284031215612b8057600080fd5b81905092915050565b600081359050612b9881614592565b92915050565b600060208284031215612bb057600080fd5b6000612bbe84828501612adb565b91505092915050565b60008060408385031215612bda57600080fd5b6000612be885828601612adb565b9250506020612bf985828601612adb565b9150509250929050565b600080600060608486031215612c1857600080fd5b6000612c2686828701612adb565b9350506020612c3786828701612adb565b9250506040612c4886828701612b89565b9150509250925092565b60008060008060808587031215612c6857600080fd5b6000612c7687828801612adb565b9450506020612c8787828801612adb565b9350506040612c9887828801612b89565b925050606085013567ffffffffffffffff811115612cb557600080fd5b612cc187828801612b44565b91505092959194509250565b60008060408385031215612ce057600080fd5b6000612cee85828601612adb565b9250506020612cff85828601612af0565b9150509250929050565b60008060408385031215612d1c57600080fd5b6000612d2a85828601612adb565b925050602083013567ffffffffffffffff811115612d4757600080fd5b612d5385828601612b6e565b9150509250929050565b60008060408385031215612d7057600080fd5b6000612d7e85828601612adb565b9250506020612d8f85828601612b89565b9150509250929050565b600060208284031215612dab57600080fd5b6000612db984828501612b05565b91505092915050565b60008060408385031215612dd557600080fd5b6000612de385828601612b05565b9250506020612df485828601612adb565b9150509250929050565b600060208284031215612e1057600080fd5b6000612e1e84828501612b1a565b91505092915050565b600060208284031215612e3957600080fd5b6000612e4784828501612b2f565b91505092915050565b600060208284031215612e6257600080fd5b6000612e7084828501612b89565b91505092915050565b612e8281613b63565b82525050565b612e9181613b75565b82525050565b612ea081613b81565b82525050565b612eb7612eb282613b81565b613d06565b82525050565b6000612ec98385613a27565b9350612ed6838584613bee565b82840190509392505050565b6000612eed82613a00565b612ef78185613a16565b9350612f07818560208601613bfd565b612f1081613dfd565b840191505092915050565b6000612f2682613a0b565b612f308185613a32565b9350612f40818560208601613bfd565b612f4981613dfd565b840191505092915050565b6000612f5f82613a0b565b612f698185613a43565b9350612f79818560208601613bfd565b80840191505092915050565b6000612f92601883613a32565b9150612f9d82613e0e565b602082019050919050565b6000612fb5602083613a32565b9150612fc082613e37565b602082019050919050565b6000612fd8601f83613a32565b9150612fe382613e60565b602082019050919050565b6000612ffb603283613a32565b915061300682613e89565b604082019050919050565b600061301e601c83613a32565b915061302982613ed8565b602082019050919050565b6000613041600283613a43565b915061304c82613f01565b600282019050919050565b6000613064602483613a32565b915061306f82613f2a565b604082019050919050565b6000613087601983613a32565b915061309282613f79565b602082019050919050565b60006130aa602283613a32565b91506130b582613fa2565b604082019050919050565b60006130cd602c83613a32565b91506130d882613ff1565b604082019050919050565b60006130f0603883613a32565b91506130fb82614040565b604082019050919050565b6000613113602a83613a32565b915061311e8261408f565b604082019050919050565b6000613136602983613a32565b9150613141826140de565b604082019050919050565b6000613159602e83613a32565b91506131648261412d565b604082019050919050565b600061317c602283613a32565b91506131878261417c565b604082019050919050565b600061319f601c83613a32565b91506131aa826141cb565b602082019050919050565b60006131c2602083613a32565b91506131cd826141f4565b602082019050919050565b60006131e5603183613a32565b91506131f08261421d565b604082019050919050565b6000613208602c83613a32565b91506132138261426c565b604082019050919050565b600061322b602983613a32565b9150613236826142bb565b604082019050919050565b600061324e602f83613a32565b91506132598261430a565b604082019050919050565b6000613271602483613a32565b915061327c82614359565b604082019050919050565b6000613294602183613a32565b915061329f826143a8565b604082019050919050565b60006132b7602183613a32565b91506132c2826143f7565b604082019050919050565b60006132da603183613a32565b91506132e582614446565b604082019050919050565b60006132fd601783613a43565b915061330882614495565b601782019050919050565b6000613320601183613a43565b915061332b826144be565b601182019050919050565b6000613343602f83613a32565b915061334e826144e7565b604082019050919050565b61336281613bd7565b82525050565b61337181613be1565b82525050565b6000613384828486612ebd565b91508190509392505050565b600061339c8285612f54565b91506133a88284612f54565b91508190509392505050565b60006133bf82613034565b91506133cb8285612ea6565b6020820191506133db8284612ea6565b6020820191508190509392505050565b60006133f6826132f0565b91506134028285612f54565b915061340d82613313565b91506134198284612f54565b91508190509392505050565b600060208201905061343a6000830184612e79565b92915050565b60006080820190506134556000830187612e79565b6134626020830186612e79565b61346f6040830185613359565b81810360608301526134818184612ee2565b905095945050505050565b60006020820190506134a16000830184612e88565b92915050565b60006020820190506134bc6000830184612e97565b92915050565b600060a0820190506134d76000830188612e97565b6134e46020830187612e97565b6134f16040830186612e97565b6134fe6060830185613359565b61350b6080830184612e79565b9695505050505050565b600060808201905061352a6000830187612e97565b6135376020830186613359565b6135446040830185613359565b6135516060830184612e97565b95945050505050565b600060808201905061356f6000830187612e97565b61357c6020830186613368565b6135896040830185612e97565b6135966060830184612e97565b95945050505050565b600060208201905081810360008301526135b98184612f1b565b905092915050565b600060208201905081810360008301526135da81612f85565b9050919050565b600060208201905081810360008301526135fa81612fa8565b9050919050565b6000602082019050818103600083015261361a81612fcb565b9050919050565b6000602082019050818103600083015261363a81612fee565b9050919050565b6000602082019050818103600083015261365a81613011565b9050919050565b6000602082019050818103600083015261367a81613057565b9050919050565b6000602082019050818103600083015261369a8161307a565b9050919050565b600060208201905081810360008301526136ba8161309d565b9050919050565b600060208201905081810360008301526136da816130c0565b9050919050565b600060208201905081810360008301526136fa816130e3565b9050919050565b6000602082019050818103600083015261371a81613106565b9050919050565b6000602082019050818103600083015261373a81613129565b9050919050565b6000602082019050818103600083015261375a8161314c565b9050919050565b6000602082019050818103600083015261377a8161316f565b9050919050565b6000602082019050818103600083015261379a81613192565b9050919050565b600060208201905081810360008301526137ba816131b5565b9050919050565b600060208201905081810360008301526137da816131d8565b9050919050565b600060208201905081810360008301526137fa816131fb565b9050919050565b6000602082019050818103600083015261381a8161321e565b9050919050565b6000602082019050818103600083015261383a81613241565b9050919050565b6000602082019050818103600083015261385a81613264565b9050919050565b6000602082019050818103600083015261387a81613287565b9050919050565b6000602082019050818103600083015261389a816132aa565b9050919050565b600060208201905081810360008301526138ba816132cd565b9050919050565b600060208201905081810360008301526138da81613336565b9050919050565b60006020820190506138f66000830184613359565b92915050565b6000808335600160200384360303811261391557600080fd5b80840192508235915067ffffffffffffffff82111561393357600080fd5b60208301925060018202360383131561394b57600080fd5b509250929050565b6000808335600160200384360303811261396c57600080fd5b80840192508235915067ffffffffffffffff82111561398a57600080fd5b6020830192506001820236038313156139a257600080fd5b509250929050565b60006139b46139c5565b90506139c08282613c8c565b919050565b6000604051905090565b600067ffffffffffffffff8211156139ea576139e9613dce565b5b6139f382613dfd565b9050602081019050919050565b600081519050919050565b600081519050919050565b600082825260208201905092915050565b600081905092915050565b600082825260208201905092915050565b600081905092915050565b6000613a5982613bd7565b9150613a6483613bd7565b9250827fffffffffffffffffffffffffffffffffffffffffffffffffffffffffffffffff03821115613a9957613a98613d41565b5b828201905092915050565b6000613aaf82613bd7565b9150613aba83613bd7565b925082613aca57613ac9613d70565b5b828204905092915050565b6000613ae082613bd7565b9150613aeb83613bd7565b9250817fffffffffffffffffffffffffffffffffffffffffffffffffffffffffffffffff0483118215151615613b2457613b23613d41565b5b828202905092915050565b6000613b3a82613bd7565b9150613b4583613bd7565b925082821015613b5857613b57613d41565b5b828203905092915050565b6000613b6e82613bb7565b9050919050565b60008115159050919050565b6000819050919050565b60007fffffffff0000000000000000000000000000000000000000000000000000000082169050919050565b600073ffffffffffffffffffffffffffffffffffffffff82169050919050565b6000819050919050565b600060ff82169050919050565b82818337600083830152505050565b60005b83811015613c1b578082015181840152602081019050613c00565b83811115613c2a576000848401525b50505050565b6000613c3b82613bd7565b91506000821415613c4f57613c4e613d41565b5b600182039050919050565b60006002820490506001821680613c7257607f821691505b60208210811415613c8657613c85613d9f565b5b50919050565b613c9582613dfd565b810181811067ffffffffffffffff82111715613cb457613cb3613dce565b5b80604052505050565b6000613cc882613bd7565b91507fffffffffffffffffffffffffffffffffffffffffffffffffffffffffffffffff821415613cfb57613cfa613d41565b5b600182019050919050565b6000819050919050565b6000613d1b82613bd7565b9150613d2683613bd7565b925082613d3657613d35613d70565b5b828206905092915050565b7f4e487b7100000000000000000000000000000000000000000000000000000000600052601160045260246000fd5b7f4e487b7100000000000000000000000000000000000000000000000000000000600052601260045260246000fd5b7f4e487b7100000000000000000000000000000000000000000000000000000000600052602260045260246000fd5b7f4e487b7100000000000000000000000000000000000000000000000000000000600052604160045260246000fd5b6000601f19601f8301169050919050565b7f45434453413a20696e76616c6964207369676e61747572650000000000000000600082015250565b7f537472696e67733a20686578206c656e67746820696e73756666696369656e74600082015250565b7f45434453413a20696e76616c6964207369676e6174757265206c656e67746800600082015250565b7f4552433732313a207472616e7366657220746f206e6f6e20455243373231526560008201527f63656976657220696d706c656d656e7465720000000000000000000000000000602082015250565b7f4552433732313a20746f6b656e20616c7265616479206d696e74656400000000600082015250565b7f1901000000000000000000000000000000000000000000000000000000000000600082015250565b7f4552433732313a207472616e7366657220746f20746865207a65726f2061646460008201527f7265737300000000000000000000000000000000000000000000000000000000602082015250565b7f4552433732313a20617070726f766520746f2063616c6c657200000000000000600082015250565b7f45434453413a20696e76616c6964207369676e6174757265202773272076616c60008201527f7565000000000000000000000000000000000000000000000000000000000000602082015250565b7f4552433732313a206f70657261746f7220717565727920666f72206e6f6e657860008201527f697374656e7420746f6b656e0000000000000000000000000000000000000000602082015250565b7f4552433732313a20617070726f76652063616c6c6572206973206e6f74206f7760008201527f6e6572206e6f7220617070726f76656420666f7220616c6c0000000000000000602082015250565b7f4552433732313a2062616c616e636520717565727920666f7220746865207a6560008201527f726f206164647265737300000000000000000000000000000000000000000000602082015250565b7f4552433732313a206f776e657220717565727920666f72206e6f6e657869737460008201527f656e7420746f6b656e0000000000000000000000000000000000000000000000602082015250565b7f45524337323155524953746f726167653a2055524920736574206f66206e6f6e60008201527f6578697374656e7420746f6b656e000000000000000000000000000000000000602082015250565b7f45434453413a20696e76616c6964207369676e6174757265202776272076616c60008201527f7565000000000000000000000000000000000000000000000000000000000000602082015250565b7f496e73756666696369656e742066756e647320746f2072656465656d00000000600082015250565b7f4552433732313a206d696e7420746f20746865207a65726f2061646472657373600082015250565b7f45524337323155524953746f726167653a2055524920717565727920666f722060008201527f6e6f6e6578697374656e7420746f6b656e000000000000000000000000000000602082015250565b7f4552433732313a20617070726f76656420717565727920666f72206e6f6e657860008201527f697374656e7420746f6b656e0000000000000000000000000000000000000000602082015250565b7f4552433732313a207472616e73666572206f6620746f6b656e2074686174206960008201527f73206e6f74206f776e0000000000000000000000000000000000000000000000602082015250565b7f4552433732314d657461646174613a2055524920717565727920666f72206e6f60008201527f6e6578697374656e7420746f6b656e0000000000000000000000000000000000602082015250565b7f4f6e6c7920617574686f72697a6564206d696e746572732063616e207769746860008201527f6472617700000000000000000000000000000000000000000000000000000000602082015250565b7f4552433732313a20617070726f76616c20746f2063757272656e74206f776e6560008201527f7200000000000000000000000000000000000000000000000000000000000000602082015250565b7f5369676e617475726520696e76616c6964206f7220756e617574686f72697a6560008201527f6400000000000000000000000000000000000000000000000000000000000000602082015250565b7f4552433732313a207472616e736665722063616c6c6572206973206e6f74206f60008201527f776e6572206e6f7220617070726f766564000000000000000000000000000000602082015250565b7f416363657373436f6e74726f6c3a206163636f756e7420000000000000000000600082015250565b7f206973206d697373696e6720726f6c6520000000000000000000000000000000600082015250565b7f416363657373436f6e74726f6c3a2063616e206f6e6c792072656e6f756e636560008201527f20726f6c657320666f722073656c660000000000000000000000000000000000602082015250565b61453f81613b63565b811461454a57600080fd5b50565b61455681613b75565b811461456157600080fd5b50565b61456d81613b81565b811461457857600080fd5b50565b61458481613b8b565b811461458f57600080fd5b50565b61459b81613bd7565b81146145a657600080fd5b5056fea2646970667358221220b07a57d4468ccb81ccd2b874d62d6d009b4ce8fa5baf68e3c50dad618f85e7bf64736f6c63430008040033",
  "linkReferences": {},
  "deployedLinkReferences": {}
}